:020000040800F2
:1000000000000220D5060008D1060008E5400008DF
:10001000D1060008D1060008D10600080000000043
:10002000000000000000000000000000D1060008F1
:10003000D106000800000000D1060008D5400008E5
:10004000D1060008D1060008D1060008D106000834
:10005000D1060008D1060008D1060008D106000824
:10006000D1060008D1060008D1060008C119000811
:10007000CD190008C5290008D9190008E51900089C
:10008000D1060008F92F0008D1060008D1060008A3
:10009000D1060008D1060008D1060008D1060008E4
:1000A000D1060008D1060008D1060008D1060008D4
:1000B000D1060008D1060008D10600081D3000084E
:1000C000D106000829300008D1060008D106000832
:1000D000D1060008D1060008D1060008D1060008A4
:1000E000D1060008D106000800000000D106000873
:1000F000D1060008D1060008D1060008D106000884
:10010000D1060008D1060008D1060008D106000873
:10011000D1060008D1060008D1060008D106000863
:10012000D1060008D1060008D1060008D106000853
:10013000D1060008D1060008D1060008D106000843
:1001400000000000000000000000000000000000AF
:10015000D1060008D1060008D1060008D106000823
:1001600035300008D1060008D1060008D106000885
:10017000D1060008D1060008D1060008D106000803
:10018000D1060008D1060008D1060008D1060008F3
:10019000D1060008D1060008D1060008D1060008E3
:1001A000D1060008D1060008D1060008D1060008D3
:1001B00069370008D1060008D1060008D1060008FA
:1001C000D1060008D1060008D1060008D1060008B3
:1001D000D1060008D1060008D1060008D1060008A3
:1001E000D1060008D1060008D1060008D106000893
:1001F000D1060008D1060008D1060008D106000883
:10020000D1060008D1060008D1060008D106000872
:10021000D1060008D1060008D1060008D106000862
:10022000D1060008D1060008D10600080000000031
:10023000D1060008D106000800000000D106000821
:10024000D1060008D1060008D1060008D106000832
:10025000D1060008D1060008D1060008D106000822
:10026000D1060008D1060008D1060008D106000812
:10027000D1060008D1060008D106000800000000E1
:10028000D1060008D1060008D106000800000000D1
:0802900000000000D106000887
:1002980010B5054C237833B9044B13B10448AFF3B8
:1002A80000800123237010BD80000024000000009E
:1002B800F8BD000808B5034B1BB103490348AFF369
:1002C800008008BD0000000084000024F8BD00087C
:1002D80081F0004102E000BF83F0004330B54FEAEF
:1002E80041044FEA430594EA050F08BF90EA020F5C
:1002F8001FBF54EA000C55EA020C7FEA645C7FEAEF
:10030800655C00F0E2804FEA5454D4EB5555B8BF11
:100318006D420CDD2C4480EA020281EA030382EA82
:10032800000083EA010180EA020281EA0303362D14
:1003380088BF30BD11F0004F4FEA01314FF4801CE7
:100348004CEA113102D0404261EB410113F0004FF9
:100358004FEA03334CEA133302D0524263EB4303B0
:1003680094EA050F00F0A780A4F10104D5F1200E4E
:100378000DDB02FA0EFC22FA05F2801841F10001A9
:1003880003FA0EF2801843FA05F359410EE0A5F17D
:1003980020050EF1200E012A03FA0EFC28BF4CF0AE
:1003A800020C43FA05F3C01851EBE37101F0004564
:1003B80007D54FF0000EDCF1000C7EEB00006EEB71
:1003C8000101B1F5801F1BD3B1F5001F0CD34908FB
:1003D8005FEA30004FEA3C0C04F101044FEA445252
:1003E80012F5800F80F09A80BCF1004F08BF5FEAD9
:1003F800500C50F1000041EB045141EA050130BDB9
:100408005FEA4C0C404141EB0101013C28BFB1F5CA
:10041800801FE9D291F0000F04BF01460020B1FA15
:1004280081F308BF2033A3F10B03B3F120020CDAE8
:100438000C3208DD02F1140CC2F10C0201FA0CF0C6
:1004480021FA02F10CE002F11402D8BFC2F1200C2B
:1004580001FA02F120FA0CFCDCBF41EA0C019040E1
:10046800E41AA2BF01EB0451294330BD6FEA04042A
:100478001F3C1CDA0C340EDC04F11404C4F1200215
:1004880020FA04F001FA02F340EA030021FA04F327
:1004980045EA030130BDC4F10C04C4F1200220FA7E
:1004A80002F001FA04F340EA0300294630BD21FABC
:1004B80004F0294630BD94F0000F83F4801306BF82
:1004C80081F480110134013D4EE77FEA645C18BF76
:1004D8007FEA655C29D094EA050F08BF90EA020F0D
:1004E80005D054EA000C04BF1946104630BD91EA05
:1004F800030F1EBF0021002030BD5FEA545C05D108
:100508004000494128BF41F0004130BD14F5800446
:100518003CBF01F5801130BD01F0004545F0FE41BA
:1005280041F470014FF0000030BD7FEA645C1ABFEF
:10053800194610467FEA655C1CBF0B46024650EA26
:10054800013406BF52EA033591EA030F41F4002152
:1005580030BD00BF90F0000F04BF0021704730B5D8
:100568004FF4806404F132044FF000054FF00001AD
:1005780050E700BF90F0000F04BF0021704730B56E
:100588004FF4806404F1320410F0004548BF404243
:100598004FF000013EE700BF42004FEAE2014FEA98
:1005A80031014FEA02701FBF12F07F4393F07F4F73
:1005B80081F06051704732F07F4208BF704793F076
:1005C8007F4F04BF41F40021704730B54FF4607489
:1005D80001F0004521F000411CE700BF50EA01028C
:1005E80008BF704730B54FF000050AE050EA010235
:1005F80008BF704730B511F0004502D5404261EBA5
:1006080041014FF4806404F132045FEA915C3FF4E5
:10061800D8AE4FF003025FEADC0C18BF03325FEA82
:10062800DC0C18BF033202EBDC02C2F1200300FA33
:1006380003FC20FA02F001FA03FE40EA0E0021FA58
:1006480002F11444BDE600BF30B4194C0022194B26
:10065800D4F88810184841F47001184DC4F888106F
:100668001C68174944F001041C601A611C6820408A
:1006780018609A61DA611A629A62DA621A635A63D6
:100688009A63DA631A645A64186820F48020186040
:100698001A662B681940B1F1005F02D2094B01229A
:1006A8001A60034B4FF0006230BC9A60704700BF7D
:1006B80000ED00E0004402587FEDF6EA0010005C0F
:1006C8000000FFFF08810051FEE700BF0D4B0E4AF6
:1006D800934206D00D4951F8040B43F8040B93429A
:1006E800F9D10B4B0B4A934204D0002143F8041B69
:1006F8009342FBD1FFF7A8FF0BF0C8F800F0BAF956
:10070800FEE700BF000000247C0000240CBE0008A7
:100718008000002408250024704700BF704700BFF0
:1007280030B5027D83B00446013252B2012A027507
:1007380003DDFF23037503B030BD8568811802EB24
:1007480082124123097B2A44094D41F0400101905E
:10075800009502F053FD0028EDD0204602F032FD4E
:100768000146204603B0BDE8304002F0CDBC00BFD2
:10077800290700082DE9F04148480E469046002513
:10078800474F2DED028B01F0F9FA464801F0F6FAD1
:10079800454801F0F3FA454801F0F0FA444801F001
:1007A800EDFA444801F0EAFA434801F0E7FA434811
:1007B80001F0E4FA424801F0E1FA424801F0DEFAB9
:1007C800414801F0DBFA414801F0D8FA404801F00D
:1007D80019FD404801F016FD3F4800F0D3FD2B46B7
:1007E80003E0072D8CBF08230023E9B23A480135FE
:1007F800CC4304F007041C4400F014FE102D07EB52
:10080800040393F8242440EA420083F82404E8D13E
:10081800324801F0DFFA324BD7F8E012D7F8FC2261
:1008280019605A60D7F81813D7F834239960DA603A
:10083800D7F85013D7F86C2319615A61D7F8881381
:10084800D7F8A42387F838049961DA61B8F1000F62
:1008580020D008F1FF380024224D28F00108214853
:1008680008360AF013FCD7EDC67A9FED1F7AB0EE72
:10087800408A1C4827EE870A85ED020A0AF0CAFD5D
:10088800444585ED060A04F1020406ED028A06EDE8
:10089800018AE4D1BDEC028BBDE8F0819403002409
:1008A800C0000024B0030024CC030024E803002483
:1008B80004040024200400243C04002458040024D8
:1008C8007404002490040024AC040024C804002408
:1008D8004803002458030024680300241D01002451
:1008E800FC0400249C00002400007A44F0B55C4E0F
:1008F8009BB005465B4C05AF0DF1340C0FCE0FC70E
:1009080096E80F00103687E80F000FCEACE80F000E
:100918000FCEACE80F000FCE04AFD6F800E005F11B
:100928002006ACE80F00A26ECCF800E0F5EC017AE6
:1009380000219FED4D7A57F8040F67EE877AF5EEA0
:10094800C07AF1EE10FA0BD4F4EEC77AFF21F1EE7B
:1009580010FA05DCFCEEE77ACDED037A9DF80C1071
:10096800C0F3071300F00F0004EB410140F6FE7CD2
:1009780003EB8313B1F87AE003EB8003E6451344F5
:10098800B3F80110C1F30B010EEB010088BF41F46D
:100998008051AE42C0F30B00A3F80110A3F8030086
:1009A800C4D10DA81AAF50F8043B40F6FE76B4F84F
:1009B8007852C3F3071103F00F03B54201EB81111D
:1009C80001EB83031344B3F80110C1F30B0105EBEA
:1009D800010C88BF41F480518742CCF30B0CA3F87B
:1009E8000110A3F803C0DED194F97830002BFDDAAA
:1009F800E16E0023C4E91A1202EB830501EB8300C0
:100A08000133B5F80350102BA0F80350F4D100239C
:100A180002EB830501EB83000133B5F84450102B3A
:100A2800A0F84450F4D1114D0026114B94F87010E1
:100A380028460093412341F04001019584F87860ED
:100A480002F0DCFB08B91BB0F0BD284602F0BAFB87
:100A5800014628461BB0BDE8F04002F055BB00BF78
:100A680008B90008C000002400007F4324010024C6
:100A78002907000870B52C4C4FF07C562B4D2046AA
:100A88002DED028B00F080F8F7EE006AD4ED9F7A26
:100A980000239FED278A284686EEA77AC5ED037ABC
:100AA8006B6185ED028A6E60B0EE480A85ED047AC6
:100AB8000AF0B0FCF0EE407A00232846B0EE480A6F
:100AC8002B70C5ED067A85ED028A0AF0A3FC204654
:100AD80018496E6085ED060A00F0FAF904F1400045
:100AE80001F0F2FE1448FFF701FF012003F068FB54
:100AF8009FED128A94EDB87A002027EE087ABCEEB2
:100B0800C77A17EE103A99B201F0F0FFD4EDBF7A28
:100B1800012067EE887AFCEEE77A17EE903A99B2F0
:100B280001F0E4FFDEE700BFC00000249C000024C1
:100B38000000C8427D070008FC04002400F07F453F
:100B480038B50B4C00230B4D4FF4007204F17A00BA
:100B5800094963660AF0BEFE2A46204607490AF09C
:100B680065FC2A4606490748BDE838400AF05EBCDD
:100B7800C0000024000000245CB900082107000818
:100B8800250700089C0000242DE9F04704462DEDB8
:100B9800028BACB000F0AAF9204600F005FA204616
:100BA80000F03EFA302184ED9F0A2046C4F88412F2
:100BB8000CAE00F03BFAD4EDA17AD4ED9F6A0DAFEC
:100BC800F8EE677ABC4B16AD86EEA77A93E8030079
:100BD8000C9020468DF834101E2184EDA07A00F088
:100BE800FFF9034694EDA00A04F52270ADF85830D9
:100BF800169901F0EBFA1D21204600F0F1F90346A1
:100C080094EDA00A04F52670ADF85830169901F055
:100C1800DDFA16F8011B204600F0E2F903462846E3
:100C28001135ADF81030049901F012FBB742F0D13C
:100C38001021204600F0D4F9034615212046ADF8CE
:100C4800143000F0CDF903461421204604F1400881
:100C5800ADF8183000F0C4F903461321204604F516
:100C68003575ADF81C3000F0BBF9BDF81C10064610
:100C7800069B082227A8ADF80010ADF80460059976
:100C8800ADF820608D4E01F0F1FA16A94046042314
:100C9800052201F025FB0DF1380C9FED898A0FCE56
:100CA800ACE80F0096E80F0004F56D768CE80F00AD
:100CB80057F8042F04214046D2B201F02BFE00233E
:100CC800014628461C35F0EE480A1A4694EDA00A5B
:100CD80001F018F8AE42EBD135460026F1B2404695
:100CE800013601F00DFE94EDA00A014628461C3598
:100CF80001F022F8042EF1D11B21204600F070F9F2
:100D080003461C212046A4F8A832002700F068F901
:100D180003461A212046A4F8AA3204F1640500F01B
:100D28005FF940F20123024604F52A70A4F8B032B4
:100D3800A4F8AC2200F0F4FA09212046614E00F034
:100D48004FF90B230AA9ADF8280004F15800ADF8B3
:100D58002A3001F09BF85C490BA80B9702F0D4F9F4
:100D680006F184030B98FF22E3663946574B0627A2
:100D780084F878202367C4E9190600E0A66E0A11F2
:100D880001F00F008B00013102EB82129BB2202987
:100D9800B75402EB8000D4E91A6C0644A6F8013077
:100DA800A6F803300CF80270E26E0244A2F8013093
:100DB800A2F80330E2D194F872300B2B0FD0B4F8BC
:100DC8007220012304F17400A4F87420A4F876308A
:100DD800039001F023FF0398002101F059FF04F16B
:100DE800700704F1720A4FF0000817F8011B01267A
:100DF800022309AA41F04001284600964FF0000955
:100E08000391ADF8248002F0DFF9142003F078F89C
:100E18000399022309AA28460096ADF8248002F017
:100E2800D3F9142003F06CF84FF40050039902230F
:100E380009AAADF824000096284602F0C5F9142046
:100E480003F05EF8052343F2016C0399009309AAA5
:100E580002232846ADF824C002F0B6F95745C4D19C
:100E68000021204600F0BCF8034609A904F15D0002
:100E7800ADF8243000F0A6FF0F21204684F85B600F
:100E880084F85C9000F0ACF8034604F159001BB2FA
:100E9800C3F3072284F8593084F85A2001F0BEFEC3
:100EA80004F14800032101F0EBFD03F019F82CB020
:100EB800BDEC028BBDE8F0879CBB00085CBB00085A
:100EC8006F12033B00000030A4BB000800020B00B7
:100ED80000F09CB8044B06221A7083F8412083F86E
:100EE800842083F8C520704700000030F8B5044618
:100EF8004FF48073244E0321A38340F60337234B1A
:100F0800234AC4F8293003F10073224D03F54073D6
:100F1800214826600626C4F82D30204B626004F173
:100F28001C02A5600125E060002084F8271030210C
:100F3800C4F831301A4BA261C4F83530E57784F82B
:100F4800215084F8230084F825006161C4F83970C1
:100F5800267400F037FE28463021124D00F032FE8C
:100F68004FF4A060022140F207124FF4877384F80F
:100F78005360A564A4F84C0084F84F10A4F85020DE
:100F8800A4F85430F8BD00BF0007050004020404AB
:100F9800010508050905070506050A0604030001F9
:100FA800060900020001000410B5044603F098F891
:100FB800204600F03FF8E01C02F058F904F14F0019
:100FC80001F02CFE04F1530001F028FE04F1140096
:100FD80000F00AFD02F04CFFBDE8104002F080BFAF
:100FE8001F2982B009D8084B03EB410213F81130CE
:100FF800507843EA002002B0704701230C2043EAEE
:10100800002002B0704700BFB0BB0008002008B540
:1010180000F0C8FD0020BDE8084000F0E9BD00BFB1
:101028009FED010A704700BF008E3B47002000F08B
:10103800C9BD00BF2DE9F043444C8BB0A0630378D1
:1010480023B1002528460BB0BDE8F083404A0A23A7
:1010580000260127626008220893202302A9201D88
:10106800C4E90267C4E9042340264FF4C07700228C
:101078004FF40063C4E90667C4E908234FF48056B7
:10108800002702220723C4E90A67CDE902230426C0
:10109800032200230827CDE90623CDE9046709F0D8
:1010A80027FA054600284CD14FF001084FF01009E7
:1010B8000126002702A94FF480520190201DCDE996
:1010C80002894FF002084FF01009CDE9046709F0D2
:1010D80039FA642003F0EEF802A94FF48052201D7B
:1010E800CDE90467CDE9028904264FF003084FF0E3
:1010F8001009002709F026FA02A94FF48052201D92
:10110800CDE90467CDE9028909F01CFA40F23223DF
:101118004FF0010C042601931027019B02A94FF4FC
:101128008052201DCDE904C3CDE9026709F00AFA0F
:10113800201D40F6060109F025FA28460BB0BDE847
:10114800F083012528460BB0BDE8F0832005002474
:1011580040410052694A2DE9F04315688FB015B136
:101168000FB0BDE8F083664B01210C240026116006
:101178000327D3F8D4204FF683784FF0020908A943
:1011880042F480525F48C3F8D420D3F8D42002F444
:1011980080520092009AD3F8E02042F01002C3F87F
:1011A800E020D3F8E02002F010020192019AD3F86F
:1011B800E02042F04002C3F8E020D3F8E02002F03B
:1011C80040020292029AD3F8E02042F00802C3F8E3
:1011D800E020D3F8E02002F008020392039AD3F843
:1011E800E02042F48072C3F8E020D3F8E02002F453
:1011F80080720492049AD3F8E02042F08002C3F887
:10120800E020D3F8E02002F080020592059AD3F896
:10121800E02042F02002C3F8E020D3F8E02002F0FA
:1012280020020692069AD3F8E02042F00402C3F89E
:10123800E020D3F8E0300C9403F004030793079BF5
:10124800CDE90A67CDE9088904F0DEFF48F23712D4
:10125800022308A92C480C94DFF8C080CDE90A675E
:10126800CDE9082304F0D0FF4CF20372022308A949
:1012780026480C94CDE90A67CDE9082304F0C4FF99
:1012880040F2FF62022308A921480C94CDE90A67BD
:10129800CDE9082304F0B8FF4FF60C72022308A921
:1012A8001C480C94CDE90A67CDE9082304F0ACFF8B
:1012B8004FF63F02022308A917480C94CDE90823EA
:1012C800CDE90A6704F0A0FFD8F83800013002F031
:1012D80079FFD8F838300646581C02F07BFF022206
:1012E8000746032308A930460C9408970B93CDE9C9
:1012F800092504F089FF0FB0BDE8F0831C05002420
:10130800004402580010025800180258000C0258F5
:1013180000200258001C025800140258200500241E
:1013280070B5044602780025012663780A30A27257
:10133800E3722673657301F071FCA278E37804F117
:101348000E00A273E3732674657401F067FC637979
:10135800227904F11200E37425756575A27401F011
:101368005DFC237AB34200D870BDA27904F116005F
:10137800E37925766576A275E375BDE8704001F0DE
:101388004DBC00BF2DE9F84300F10E0700F10A0437
:1013980000218146384601F07BFC0121204601F0FE
:1013A80077FC012002F0A2FD2046002101F070FC2C
:1013B80099F809309BB300260021384601F068FCF3
:1013C800012002F093FD99F80830D3B1F5434FF0AE
:1013D8000008EDB208F10103404699F809405FFAA8
:1013E80083F809EB800014FB08F4123005EBC40401
:1013F80001F040FCE4B24C44A07699F8083043452B
:10140800E8D801213846013601F042FC012002F0FB
:101418006DFD99F80930F6B2B6EBC30FCCDBBDE829
:10142800F88300BF437A027A13FB02F3B1EBC30FD0
:10143800A8BF00210844807E704700BF2DE9F04F07
:10144800D64F8DB0DFF86CB3BB6807F11006D7F83C
:1014580010580BF582640BF1100207F5826903EB53
:10146800800E069483000A9204EB8508DBF8084096
:1014780006EB850C039302EB850197F81C3809EB02
:10148800850ACDF81C8004EB80000B91CDE9086C2F
:10149800CDE9049A002B00F0DA80012B40F0C480DB
:1014A800002D00F066810B4600240EF1040900F1BE
:1014B8000408DFEDBB5A71460295019351F83430A8
:1014C80059F8345083F4000E50F8343085F4000590
:1014D80083F4000AAEF5000306EE103A58F83430EB
:1014E800AAF5000A013483F4000EA5F5000306EE00
:1014F80090AAB8EEC66A07EE103AAEF50003F8EE09
:10150800E66A07EE903AB8EEC77A019B26EE256A9E
:10151800F8EEE77A66EEA56A27EE257AA6EC016A68
:1015280067EEA57AE2EC016AACEC017AE3EC017AA9
:101538000193029BA342C1D11D467B682A4604A998
:1015480008A89847039ADBF80C00F96897F81C3844
:1015580010441144002B00F0B180012B5DD1DDF85F
:1015680010A00023DDF81C900E1DDDF81880041D66
:10157800DDF814E09FED8B7ADFF83CC2DFED8A6A74
:101588008A4F3BE0F4EEE67AF1EE10FAC0F22B81D6
:101598003A46FEEC017A41F83320F4EEC77AF1EED0
:1015A80010FA3FD9F4EEE67AF1EE10FAC0F2228191
:1015B8003A46F8EC017A46F83320F4EEC77AF1EEB1
:1015C80010FA2DD9F4EEE67AF1EE10FAC0F219818C
:1015D8003A46F9EC017A40F83320F4EEC77AF1EE96
:1015E80010FA14D9F4EEE67AF1EE10FAC0F2C780D8
:1015F8003A4644F8332001339D420ED9FAEC017A79
:10160800F4EEC77AF1EE10FABCD86246C1E762463A
:1016180044F8332001339D42F0D80DB0BDE8F08F77
:101628006246D6E76246C4E77B682A4604A908A84A
:101638009847039ADBF80C00F96897F81C381044AF
:101648001144CBB3012BE8D1002D88D1E5E7002D5B
:1016580000F08F800EF1040900F10408DFED545A00
:101668003EF9334006EE104A30F9334006EE904A10
:1016780039F93340B8EEC66A07EE104A38F93340F4
:10168800F8EEE66A013307EE904AB8EEC77A26EE1E
:10169800256A9D42F8EEE77A66EEA56A27EE257A76
:1016A800A6EC016A67EEA57AE2EC016AACEC017A75
:1016B800E1EC017AD4D140E7002DAED0DDF810A0DE
:1016C8000023DDF81C900E1DDDF81880041DDDF8E0
:1016D80014E09FED347ADFF8E0C0DFED336A334F72
:1016E80038E0F4EEE67AF1EE10FA4FDB3A46FEEC1B
:1016F800017A41F83320F4EEC77AF1EE10FA36D9C0
:10170800F4EEE67AF1EE10FA58DB3A46F8EC017A94
:1017180046F83320F4EEC77AF1EE10FA25D9F4EE44
:10172800E67AF1EE10FA50DB3A46F9EC017A40F825
:101738003320F4EEC77AF1EE10FA14D9F4EEE67A13
:10174800F1EE10FA48DB3A4644F8332001339D4263
:101758007FF663AFFAEC017AF4EEC77AF1EE10FA8D
:10176800BFD86246C3E76246EEE76246DDE76246F7
:10177800CCE77B682A4604A908A898474DE7B0EE4D
:10178800676ABEEEE46A16EE102A32E7B0EE676AC0
:10179800BEEEE46A16EE102AA9E700BF5C05002435
:1017A8000000003404FF7FBF04FF7F3F82FF7F00FB
:1017B80000000038800D00247E0080FFB0EE676ACC
:1017C800BEEEE46A16EE102AA0E7B0EE676ABEEE37
:1017D800E46A16EE102AA8E7B0EE676ABEEEE46A7D
:1017E80016EE102AB0E7B0EE676ABEEEE46A16EEAF
:1017F800102ACEE6B0EE676ABEEEE46A16EE102A4C
:10180800D7E6B0EE676ABEEEE46A16EE102AE0E6A6
:101818000B469200014618460AF05CB8F8B5044633
:1018280001220F4658484FF4804104F0E5FE236832
:10183800564A934263D02032934260D0544DD5F833
:10184800184805F1100095F81C28BE00AB6864081C
:10185800012A03EB870100EB840452D0A0420FD089
:1018680002469FED4C7A51F8043B1BB207EE903AC2
:10187800F8EEE77A67EE877AE2EC017A9442F2D1E1
:1018880005F5826495F81E78D5F8102821462B684E
:1018980002FB07F29847D5F8182895F81C18EB684A
:1018A80052080129334404EB820240D094421ED0EE
:1018B8009FED397A3948DFED3A6A9FED3A6A08E0D8
:1018C800F4EEE67AF1EE10FA55DBA24243F8041B77
:1018D8000DD0F4EC017A47F6FE71F4EEC77AF1EE1A
:1018E80010FAEDD80146A24243F8041BF1D10022B8
:1018F8004FF480412448BDE8F84004F07DBE2A4DED
:101908009DE7A042BCD002469FED287A51F8043BDF
:1019180083F40003A3F5000307EE903AF8EEE77AA4
:1019280067EE877AE2EC017A9442EFD1A8E7944215
:10193800DDD0043B9FED187A1D4DDFED196A1D4877
:1019480008E0F4EEE67AF1EE10FA0DDBA24243F875
:10195800041FCCD0F4EC017A0146F4EEC77AF1EE1C
:1019680010FAEED82946F1E7B0EE676ABEEEE46AEF
:1019780016EE101AEAE767EE867AFDEEE77A17EEBA
:10198800901A09B2A1E700BF001802580458014094
:10199800800D00240000003804FF7FBF0280FFFF95
:1019A80004FF7F3F00FEFF465C0500240000003472
:1019B8007E0080FF82FF7F00014804F0C5B800BFA9
:1019C80008230024014804F0BFB800BF8023002486
:1019D800014804F0B9B800BFF8230024014804F016
:1019E800B3B800BF60210024D0E900232DE9F041FD
:1019F800802A614C614D86B028BF8022C4F8200837
:101A0800C5F8200818461E78DF7A93F80C80C4F8C9
:101A18001028C5F81028DA78594984F81C281B7949
:101A28002160296085F81C3801F02EFF55484FF0D9
:101A3800020C554916F0FD0F00F5006ED4F8102879
:101A4800D5F8103802FA0CF284F81EC803FA0CF321
:101A580085F81EC8C4F81828C5F81838C5E9020E54
:101A680001F50060C4E9020125D1032F84F81D782F
:101A780060D00F4600F2FF7340F6FE72DB1B934204
:101A880062D94FF40062002109F032FF38464FF462
:101A98000062002109F02CFF4FF4007200213B483E
:101AA80009F026FF4FF400720021394809F020FFA1
:101AB8000023C4F81438731E012B10D900263548AA
:101AC8004FF480420123002406706946324803948B
:101AD800CDE9002304F098FB06B0BDE8F081A868C2
:101AE80040F6FE72EF6800F2FF7385F81D88DB1B75
:101AF800934235D94FF40062002109F0F9FE3846C7
:101B08004FF40062002109F0F3FE4FF40072002147
:101B18002248A6F1020609F0EBFE4FF400720021FC
:101B28001F4809F0E5FEB6FA86F600237609C4F8E0
:101B38001438C4E740F60133ADF80030009809F0D6
:101B480029FAD4E9020795E7031F3A1F00F2FC704F
:101B5800002143F8041F834242F8041FF9D19BE790
:101B6800031F3A1F00F2FC70002143F8041F98423B
:101B780042F8041FF9D1C8E75C050024800D002451
:101B88001918000808110030080100306C050024FD
:101B98006C090024A415002400180258900D002494
:101BA80090110024044B00221A7010B9034B1960DD
:101BB8007047034B19607047A41500245C05002486
:101BC800800D002468B9084B802993F81E2828BF87
:101BD8008021C3F8101801FB02F14900C3F8181856
:101BE8007047024BF0E700BF5C050024800D00241D
:101BF80010B5C0B9234CD4F82038B4F818285B685D
:101C08005B7973B3E168204808F0D2FAD4F8203839
:101C1800B4F818285B68DB7973BBA1681B48BDE87A
:101C2800104008F057BB1A4CD4F82038B4F81828DC
:101C38005B689B7983B1E168164808F0B9FAD4F873
:101C48002038B4F818285B681B7A7BB9A168124859
:101C5800BDE8104008F03EBBA1680E4808F03AFB0A
:101C6800EDE7A168084808F035FBCFE7E1680A48C6
:101C7800BDE8104008F09CBAE1680448BDE810408F
:101C880008F096BA5C050024702400247022002411
:101C9800800D0024D8210024C8200024084B1A787D
:101CA800012A07D10368074A934206D0203293429B
:101CB80003D070470021FFF7B1BD0020FFF7BEBB7E
:101CC800A4150024045801400B4B1A78012A07D1A7
:101CD80003680A4A934209D02032934206D07047DB
:101CE800074BD3F818184908FFF798BD044BD3F8E9
:101CF80018084008FFF7A2BBA415002404580140A7
:101D08005C050024B6EE007A016060EE200A0276D7
:101D1800F7EE007A437680ED020A60EE870AC0ED9E
:101D2800047A87EEA07A10B40024C46044615DF898
:101D3800044B80ED017A7047DFED0F7AB6EE007A3A
:101D4800F7EE006A4FF0804260EE277A4FF4807316
:101D580080ED057A016067EE877A80ED020A0261FC
:101D6800038386EEA77A10B40024C4605DF8044BA0
:101D780080ED017A704700BF6F12033B0268037E53
:101D8800128807EE902AFBEEC87A1BB1B7EE007AEC
:101D980077EE677AD0ED056A90ED047A77EEE67A09
:101DA800437E67EE877A0BB1F1EE677A90ED030A0E
:101DB80090ED017A77EEC07AA7EE270A80ED030A44
:101DC800704700BF098800220180C0F8022000F097
:101DD80025BF00BF10B543790446037100F04AFFE0
:101DE80000280CBF01230023637104D12079B0FAC5
:101DF80080F0400910BD002010BD00BF704700BF33
:101E08002DE9F041DFF8808082B0B0241C4E1D4DD2
:101E1800002130468DF8074001340F4600F038FFA6
:101E280001220DF107012846E4B201F0ABFF394663
:101E380030468DF8077000F02BFF01220DF10701E5
:101E4800284601F09FFF1023394630468DF80730A9
:101E580000F01EFF01220DF10701284601F092FF54
:101E68000121304600F014FF41468022284601F047
:101E780089FFB82C08F18008CAD102B0BDE8F0810A
:101E8800AC190024A8190024A81500242DE9F0474E
:101E98000D46C34E012482B035F8023B8146DFF877
:101EA80010833046BF4F4FF0200A3380B47000F0E3
:101EB800B5FE2B884046002588F80240A8F8003077
:101EC80000F0ACFE384601F031FF2946404600F0EC
:101ED800DFFE0A2002F074F92146404600F0D8FEE1
:101EE8000A2002F06DF9AE23304629468DF80730F6
:101EF80000F0CEFE224638460DF1070101F042FF00
:101F0800304629468DF807A000F0C2FE22460DF1A2
:101F18000701384601F036FF304629468DF807504C
:101F280000F0B6FE22460DF10701384601F02AFFFF
:101F3800B023294630468DF8073000F0A9FE224626
:101F48000DF10701384601F01DFFC8232946304628
:101F58008DF8073000F09CFE22460DF10701384647
:101F680001F010FF294630468DF8075000F090FE2A
:101F780022460DF10701384601F004FF10232946D7
:101F880030468DF8073000F083FE22460DF1070138
:101F9800384601F0F7FE4023294630468DF80730D1
:101FA80000F076FE22460DF10701384601F0EAFE00
:101FB8008123294630468DF8073000F069FE224615
:101FC8000DF10701384601F0DDFEFF2329463046B2
:101FD8008DF8073000F05CFE22460DF10701384607
:101FE80001F0D0FEA123294630468DF8073000F0D5
:101FF8004FFE22460DF10701384601F0C3FEA62325
:10200800294630468DF8073000F042FE22460DF191
:102018000701384601F0B6FEA823294630468DF858
:10202800073000F035FE22460DF10701384601F071
:10203800A9FE3F23294630468DF8073000F028FED8
:1020480022460DF10701384601F09CFEA4232946DB
:1020580030468DF8073000F01BFE22460DF10701CF
:10206800384601F08FFED323294630468DF80730D5
:1020780000F00EFE22460DF10701384601F082FEFF
:10208800294630468DF8075000F002FE22460DF131
:102098000701384601F076FED523294630468DF8EB
:1020A800073000F0F5FD22460DF10701384601F032
:1020B80069FEF023294630468DF8073000F0E8FD28
:1020C80022460DF10701384601F05CFED923294666
:1020D80030468DF8073000F0DBFD22460DF1070190
:1020E800384601F04FFE2223294630468DF8073046
:1020F80000F0CEFD22460DF10701384601F042FE00
:10210800DA23294630468DF8073000F0C1FD224613
:102118000DF10701384601F035FE122329463046F5
:102128008DF8073000F0B4FD22460DF1070138465E
:1021380001F028FEDB23294630468DF8073000F0F1
:10214800A7FD22460DF10701384601F01BFE29467E
:1021580030468DF807A000F09BFD22460DF10701DF
:10216800384601F00FFEAF23304629468DF8073078
:1021780000F08EFD22460DF10701384601F002FEFF
:1021880029464FF48062084809F0B2FB4846FFF739
:1021980037FE064B1D605C7102B0BDE8F08700BFDA
:1021A800AC190024A8190024A8150024B01900248B
:1021B800B8190024024A0349034809F037B900BF97
:1021C80000000024051E0008A8190024B7EE007AB4
:1021D80001220346C7EE007A70B4002683B0C1F32B
:1021E80007250024ADF80410C660417010449D70A6
:1021F800DC701A709A809A71C3ED027A03B070BCD1
:1022080000F00CBD38B54479054683790130640087
:1022180064B2B3B100F02EFDB0FA80F35B0923433A
:10222800DBB2A3F17F026B71012A0ED9FF2B07D114
:10223800D5ED037A95ED027A77EE877AC5ED037AC4
:1022480038BD00F017FD43B2E9E70023EB6038BD65
:1022580082B000230322ADF80410BDF80410827088
:1022680001800374C37002B0704700BF70B483B0BC
:102278000325082A06ACADF804108570114634F819
:10228800046B28BF0821ADF80030042ABDF80430DB
:102298002488BDF8005003804FF000030681858034
:1022A80084810174C37008D8022A10D802D101228F
:1022B800C371827103B070BC70470122C371C372CD
:1022C800C37382718272827303B070BC704701223B
:1022D800C371C3728271827203B070BC704700BF51
:1022E8002DE9F04F0026DC4CDC4F964642608FB05B
:1022F800037007F1380284F8FCE08446A4F8096109
:10230800C4F8FD60C4F80161C4F80561BE610396B4
:102318000696C7E90066C7E90266C7E90466436826
:10232800CDE90466C4E94A72CDE90766CDE90966D4
:10233800CDE90B66002B00F06B810D460868A046BE
:102348004968EB68AA683E80A8E80F002B7C88F8EB
:1023580000302B7C84F8FD30DCF80430012B40F28F
:1023680057812B467E8053F8118F58689968DA6830
:10237800C4F81180C4F81500C4F81910C4F81D2059
:102388001B7C84F8213095F8213084F8FE30DCF885
:102398000430022B40F23C812B46BE8053F8228F3A
:1023A80058689968DA68C4F82280C4F82600C4F826
:1023B8002A10C4F82E201B7C84F8323095F832306D
:1023C80084F8FF30DCF80430032B40F221812B46DF
:1023D800FE8053F8338F58689968DA68C4F83380F8
:1023E800C4F83700C4F83B10C4F83F201B7C84F8BD
:1023F800433095F8433084F80031DCF80430042B7E
:1024080040F20681A94604F144083E8159F8440F78
:10241800D9F80C30D9F80410D9F80820A8E80F002A
:1024280099F8103088F8003095F8543084F8013164
:10243800DCF80430052B40F2EB802B467E8153F804
:10244800558F58689968DA68C4F85580C4F85900F7
:10245800C4F85D10C4F861201B7C84F8653095F8D9
:10246800653084F80231DCF80430062B40F2D08065
:102478002B46BE8153F8668F58689968DA68C4F8A5
:102488006680C4F86A00C4F86E10C4F872201B7C19
:1024980084F8763095F8763084F80331DCF8043027
:1024A800072B40F2B5802B46FE8153F8778F58688A
:1024B8009968DA68C4F87780C4F87B00C4F87F109C
:1024C800C4F883201B7C84F8873095F8873084F81B
:1024D8000431DCF80430082B40F29A80A94604F154
:1024E80088083E8259F8880FD9F80C30D9F80410BA
:1024F800D9F80820A8E80F0099F8103088F80030BB
:1025080095F8983084F80531DCF80430092B7FD928
:102518002B4608F101064FF0000A53F8998FA7F8E7
:1025280012A058689968DA68C4F899807060B16038
:10253800F2601B7C337495F8A93084F80631DCF816
:1025480004300A2B64D92B46A7F814A053F8AA8F95
:1025580058689968DA68C4F8AA80C6F81500C6F8F9
:102568001910C6F81D201B7C86F8213095F8BA3062
:1025780084F80731DCF804300B2B49D92B46A7F82F
:1025880016A053F8BB8F58689968DA68C4F8BB80FE
:10259800C6F82600C6F82A10C6F82E201B7C86F836
:1025A800323095F8CB3084F80831DCF804300C2B45
:1025B8002ED9A94606F13308A7F818A059F8CC0F68
:1025C800D9F80C30D9F80410D9F80820A8E80F0079
:1025D80099F8103088F8003095F8DC3084F8093123
:1025E800DCF804300D2B13D92B46A7F81AA053F8A2
:1025F800DD7F58689968DA68C4F8DD70B064F16402
:1026080032651B7C86F8543095F8ED3084F80A3131
:102618005FFA8EF1124D4FF480209CF800200023C1
:102628000826C4F848110121C4F830514FF48075C8
:10263800C4F834010320C4F8383184F84C31A4F8C4
:102648004451C4F85C01C4E95533C4E95833C4E9BA
:102658004F16AAB106E000BFBC19002408210030BB
:1026680000200240013A84F86811C4E95D31082A63
:1026780008D8DFE802F083888D92979CA1A7AE0066
:1026880084F86821804802F057FA034608B1FFBE73
:10269800FEE703A97C48039302F0AAFB054600283D
:1026A80040F0EB8040F2FF7302220420002184F8FE
:1026B8000C52CDE9082394F8FC30CDE90A01002B2F
:1026C80000F0D8800627DFF8F8B1DFF8F8A121E09C
:1026D800022B00F0A980012B40F0B28099F801305C
:1026E800012B00F0C180002B0CBF5346002306A924
:1026F80065480693079701F043FE002840F0B28032
:10270800013594F8FC30EDB2AB4240F2B3805F4B38
:1027180053F825702EB206EB061604EB0609484658
:1027280000F07CFA05EB051323441B7C042B00F313
:102738009F80022B00F39A8052D06219002182F800
:10274800EE10002B50D1A35D002BC1D199F80130B8
:10275800062B00F08380072B7ED0022B7AD0032B28
:1027680076D0002B7CD0012B00F08980042B00F060
:102778008880052B464B18BF0023B8E70323402267
:10278800C4E95B327EE707236022C4E95B3279E75C
:102798000F238022C4E95B3274E71F23A022C4E917
:1027A8005B326FE73F23C022C4E95B326AE77F23CD
:1027B800E022C4E95B3265E7FF234FF48072C4E985
:1027C8005B325FE740F2FF134FF49072C4E95B326B
:1027D80058E740F2FF334FF4A072C4E95B3251E787
:1027E8000123621982F8EE306319012193F8EE2073
:1027F80084F80C12002AA6D006F104081A46002311
:10280800009701962F46A0441D46164640460135BE
:1028180000F004FA96F8EE3008F10408AB42F5DC53
:102828003D46DDE900768EE799F80130042B0DD09E
:10283800052B09D033B1012B164B18BF002356E7DF
:10284800002354E7144B52E7144B50E7144B4EE760
:10285800144B4CE7144B4AE7144B48E7144B46E734
:10286800144B44E7FFBEFEE75B4640E70223B8E7A8
:102878000323B6E70FB0BDE8F08FFFBEFEE70E4BAF
:1028880035E70E4B33E700BFEC1A0024F0BB000815
:102898000000B84F0008302E0004002A00018021F3
:1028A8001000C0100080F03E0040C03A8000501D6B
:1028B8000800900C00002143000052470000844BA0
:1028C8002000F0140002B02510B50B4C40F2FF7246
:1028D8004FF0011104F5987002F038FA94F80C32B0
:1028E80094F8FC2003B15200D4F828110348BDE83D
:1028F800104001F099BF00BFBC190024EC1A002455
:10290800034B0D29D3F8280198BF00EB410070470D
:10291800BC190024054B0D29D3F82C0103D8C1EBB1
:10292800C10100EB411000EB02107047BC190024F4
:102938001E4B02689A4200D070471D4B4FF48061CD
:10294800D3F8D82070B542F020021A4C0546092069
:10295800C4F8A4114FF40061C4F8980182B0C3F818
:10296800D82004F5CA76D3F8D8204FF4005312487B
:1029780002F02002C4F8A811C4F8AC314FF48071F9
:102988000023C4F8940101923046019AC4F8B011AA
:10299800C4E96733C4E96D3302F046FD08B1FFBEF0
:1029A800FEE7EE64C4F8CC5102B070BD00200240CE
:1029B80000440258BC19002440000240014803F0BA
:1029C800C3B800BF501B002402682DE9F84F2A4BFA
:1029D8009A4201D0BDE8F88FDFF8A09099F8FC2062
:1029E800002AF7D0002409F1040609F5867509F1D3
:1029F800FC07A04616E05FFA83FA03F0010117F816
:102A08000FBC304600F044F9301DBBF1010FCAF38A
:102A1800400125D899F8FC20013411360235A3B2BB
:102A28009A42D7D917F8011FC4EBC40C0029F3D078
:102A3800D9F828210021D9F82C3128788A4632F88B
:102A480014E003EB4C13020123F802E02B88013356
:102A58009BB22B803A789A42CDD8A5F80080CEE771
:102A680000F016F9BBF1020F06F10800CAF3800165
:102A7800D0D000F00DF9CDE700200240BC190024A9
:102A880070B5184D8AB00C462B7E68619BB100204A
:102A980002210026002200230496CDE90001CDE999
:102AA8000223C4B1032C16D004F0FD03012B0AD075
:102AB8006C760AB070BD0C4B28462B6002F0D2FA37
:102AC80001232B76E3E710226946064802F024FB2F
:102AD8006C760AB070BD00226946024802F01CFB01
:102AE800E2E700BFCC1B00240074004010B51E4C68
:102AF80082B00B4662695278002A0CBF0822002275
:102B0800012804D003281BD080B102B010BD1021C9
:102B1800204602F0E9FA63691B78002BF5D12046BC
:102B2800102102B0BDE8104002F0B2BA01462046BA
:102B380002F0DAFA636919780029E6D12046F0E74D
:102B4800CDE900212046002102F0CEFA10212046CE
:102B5800DDE9002302F0C8FA636919780029D4D1A5
:102B6800204602F095FADAE7CC1B0024284B0268CD
:102B78009A4200D07047274B0020D3F8E81030B5B0
:102B880041F00051244C89B00325627EC3F8E81057
:102B9800D3F8E81001F0005101910199D3F8E01041
:102BA80041F00101C3F8E010D3F8E030049503F0D8
:102BB800010305900293029B3AB1AA4205D002F0A4
:102BC800FD02012A13D009B030BD656902352846D7
:102BD80001F0F8FA034628461D4601F0FBFA0346C1
:102BE80003A92846039303F00FFB627EE7E76469B5
:102BF8000434204601F0E6FA034620461C4601F05C
:102C0800E9FA034603A92046039303F0FDFADAE73D
:102C18000074004000440258CC1B002410B583788F
:102C280086B00446022B22D0032B1ED0012B1CD0C9
:102C380000230293E378012B15D0022B13D0002335
:102C4800039300232046049301F0BCFA0346204670
:102C58001C4601F0BFFA01A903462046019303F080
:102C6800D3FA06B010BD0393EBE70293E2E7112312
:102C78000293DFE738B5054601F0A4FA0446284672
:102C880001F0A8FA01462046BDE8384003F0AEBC82
:102C980070B506460D4601F095FA0446304601F037
:102CA80099FA2A1E0146204618BF0122BDE8704045
:102CB80003F0A2BC2DE9F04B04468846934699469A
:102CC80000F18407384604F0D5FC2028FAD123689F
:102CD800244A012BE26006D0022B40D0002B3BD0C7
:102CE8000120BDE8F08B24232361002540214FF407
:102CF800806204F10C0625633046E261C4E90515DB
:102D0800C4E90855C4E90A55C4E90E5502F08CFB1C
:102D1800054608B1FFBEFEE794F900C04FEA480136
:102D2800C4F8BC603846089E4B46676489B20E4CAE
:102D38005A46DFF83C800D4F2660099E88F800C08F
:102D48003E6003F03DFE0028CBD0FF230120256024
:102D58003D6088F80030C4E722232361C5E74A2391
:102D68002361C2E7A0000240E81B00242C1C0024B9
:102D7800281C002470B5122286B00023CDE9022356
:102D880002680493032A01D804230593061D841DB1
:102D9800304601F017FA0546304601F01BFA0346A3
:102DA80001A92846019303F02FFA204601F00AFAF8
:102DB800034620461C4601F00DFA01A903462046A9
:102DC800019303F021FA06B070BD00BF634A03689F
:102DD800934210B58CB028D0614A934258D0614ACA
:102DE800934200F09480604A934201D00CB010BD29
:102DF8005E4C5F48D4F8E03043F00203C4F8E0309A
:102E0800D4F8E03003F002030A930A9BFFF7B2FFFD
:102E1800D4F8F43043F08003C4F8F430D4F8F43034
:102E280003F080030B930B9BE0E7504C5148D4F818
:102E3800E03043F00203C4F8E030D4F8E03003F0A7
:102E480002030193019BFFF795FFD4F8E8300022B5
:102E58001F2043F400131146C4F8E830D4F8E830D2
:102E680003F400130293029BD4F8D83043F0010313
:102E7800C4F8D830D4F8D83003F001030393039B87
:102E880002F02CF81F200CB0BDE8104002F060B82A
:102E9800364C3948D4F8E03043F08003C4F8E030C9
:102EA800D4F8E03003F080030493049BD4F8E030B6
:102EB80043F00203C4F8E030D4F8E03003F0020332
:102EC8000593059BFFF756FFD4F8E8300022212030
:102ED80043F480031146C4F8E830D4F8E83003F42A
:102EE80080030693069BD4F8D83043F00103C4F856
:102EF800D830D4F8D83003F001030793079B01F0CA
:102F0800EDFF21200CB0BDE8104002F021B81B48AD
:102F1800FFF730FF154B00224820D3F8E840114650
:102F280044F40004C3F8E840D3F8E84004F400048B
:102F38000894089CD3F8D84044F00104C3F8D8405A
:102F4800D3F8D83003F001030993099B01F0C6FFB9
:102F580048200CB0BDE8104001F0FABF0054004012
:102F680000580040005C0040001C00580044025813
:102F7800A01E0024301C0024001D0024D01D0024A5
:102F88002DE9F04387B00024174D01AF0194039455
:102F9800AC46ADF804403E46ADF80C400494B64645
:102FA80002940FCF019405F11407B4602835ADF8E9
:102FB8000440ADF80C40ACE80F000FCECCF8004050
:102FC8004FF0FF0C019403940FC7084B3C6083F843
:102FD80000C0ADF80440ADF80C40BEE80F000FC5C6
:102FE8002C6007B0BDE8F083EC1B0024281C0024EB
:102FF800064B1A78120600D570471878D022044B71
:1030080040B202FB00300C3002F09EBD281C0024A8
:10301800301C0024014803F08DBD00BFB41C0024FF
:10302800014803F087BD00BF841D0024014803F058
:1030380081BD00BF541E0024134AFF2170B51368D8
:1030480082B0124C217023B1002111481160006830
:10305800984723781B0613D50E4C0F4D04F13C06F8
:1030680062682846D03542B1D4E90331CDE9003150
:1030780023892188FFF71EFE20B11434B442EFD112
:1030880002B070BD6060FBE7E81B0024281C002428
:103098002C1C0024EC1B0024301C002470B582B0CA
:1030A800144C03F05FFB144AFF21136821702BB105
:1030B80000251248012100681560984723781B06EF
:1030C80013D50F4C0F4D04F13C0662682846D035E5
:1030D80042B1D4E90331CDE9003123892188FFF7D2
:1030E800E9FD20B11434B442EFD102B070BD606084
:1030F800FBE700BF281C0024E81B00242C1C00242C
:10310800EC1B0024301C0024F0B50C68D025284E98
:1031180085B005FB04F5032C06EB0507076028DCE2
:10312800244B0DF1100C07C987E807000FCB0CE9F9
:103138000F00BB680CEB8402012B52F8102CC7F867
:10314800842030D0022B2AD02BB305F18400D02361
:103158000022012103FB04633518C3E92321284613
:10316800C3F8A420C3E92522C3E9272203F0FAFA09
:1031780010B1012005B0F0BD0146284604F07EFAE2
:103188000028F6D10146284604F0A4FA003818BFF2
:10319800012005B0F0BD084BC7F88830D5E7074BCC
:1031A800C7F88830D1E7064BC7F88830CDE700BFAD
:1031B800301C00247CBB00088A62E0301A098010A9
:1031C8003211D0200068704770B5056884B00C468D
:1031D8008435089E2846CDE9022304F04BFA2028BE
:1031E800DDE90223F6D161002846009689B203F092
:1031F8000DFB003818BF012004B070BD00682DE930
:10320800F041046886B0032CDDE90C8E25D0154DFD
:103218002D782D060BD404EB8400134C1E46002396
:1032280004EB800403936068019328B1FEE706B0BD
:10323800BDE8F041FFF73EBD01ADADF80C60ADF85B
:10324800041006460292CDF810800FCD0FC4304608
:10325800C4F800E006B0BDE8F0810126304606B0AB
:10326800BDE8F081281C0024EC1B00242DE9F04F58
:10327800A44C0346ABB0204623655F7893F80080E2
:1032880004F0D6FBE8B9012F4FF001059E4903462B
:1032980014BF4FF480124FF40002E060A560C4E947
:1032A800001592FAA2F2B2FA82F24FF48076E06147
:1032B8002046013A2362C4E9042604F04DFB034684
:1032C80018B101202BB0BDE8F08F4FF0660C41F229
:1032D800883220460EA91496179313931B93CDF8A2
:1032E80038C0CDE91533CDE9193304F0BFFB002808
:1032F800E7D1992341F288320EA920460E9304F0B3
:10330800B5FB0028DDD14FF0000B4FF0010C4FF05A
:10331800050A4FF08079249008AA21901CA92990C9
:1033280041F28833CDF870A0CDF89490CDE908BC6F
:103338004FF0100B4FF0010CCDE90ABC4FF0000B19
:103348004FF4800CCDE92260CDE927002046CDE975
:103358000CBC04F0F7FC0028B3D1ADF808001390BA
:10336800CDE91460CDE91609CDE91850CDE91A0068
:10337800002F00F0CB80F023ADF80830C02341F2D5
:1033880088320EA95F480E9304F070FB002898D18C
:1033980041F288325B4802A904F0D2FB04460028B7
:1033A8008FD1002601274FF480754FF080794FF0B8
:1033B800000A4FF4800B219441F28833299408AA1B
:1033C8001CA950482295CDF89490CDE90867CDE91D
:1033D800234410260127CDE927440524CDE90A67AF
:1033E8001C94CDE90CAB04F0ADFC00287FF469AF68
:1033F800012406238DF8070041F2883213901CA996
:103408001B90219029900E941C93CDE91450CDE97E
:103418001609CDE91900CDE92250CDE92400CDE9FE
:103428002700384804F022FB00287FF44AAF102612
:103438000127052041F2883308AA1CA91C903148AD
:10344800CDF89490CDE90A6702260227CDE90CABA6
:10345800CDE9086704F076FC00287FF432AF41F22A
:1034680088320EA9274804F001FB00287FF429AF11
:10347800402341F288320DF1070122488DF80730C8
:1034880004F05EFB00287FF41CAF102601270520FE
:1034980002AA41F288330EA90E901A48CDF85C9022
:1034A800CDE9046740264027CDE906ABCDE90267A0
:1034B80004F048FC064600287FF403AF2295002557
:1034C80021960520299601271C9008AA41F28833E5
:1034D8001CA90C48CDF89490CDE92366CDE9276660
:1034E8000126CDE908561026CDE90CABCDE90A67CF
:1034F80004F028FC00287FF4E4AEB8F1000F50D0A7
:103508000020DFE6701F002400500052612341F2C2
:1035180088320EA920460E9304F0A8FA00287FF4FA
:10352800D0AE41F2883202A9204604F087FB002879
:103538007FF4C7AEBDF808300625259041F28832E1
:1035480023F07803219029901CA943F04003229688
:103558001C95ADF80830CDE92300CDE927002046B9
:1035680004F084FA00287FF4ACAE10260127204628
:103578000225022441F2883308AA1CA9CDF870A0BC
:10358800CDF89490CDE90A6700264FF48007CDE97D
:103598000845CDE90C6704F0D5FB00283FF4EEAEF2
:1035A8008FE6EB24A0264FF4005706251C94002430
:1035B8004FF0805000234FF480784FF440692990F1
:1035C8000EAA1CA90C48CDE91E67CDE920454FF489
:1035D80040464FF0407700240025CDE92733CDE958
:1035E8002289CDE92467CDE90E4504F01FFC003897
:1035F80018BF012066E600BF701F00243E4B02681A
:103608002DE9F0479A428CB04FF00005CDE90755F7
:10361800CDE909550B9502D00CB0BDE8F087374BC2
:103628000226374905AFD3F8D420B146DFF8D4A035
:103638004FF0030842F48042C3F8D420D3F8D420D2
:1036480002F480420092009AD3F8E02042F040024F
:10365800C3F8E020D3F8E02002F040020192019A7A
:10366800D3F8E02042F02002C3F8E020D3F8E020AD
:1036780002F020020292029AD3F8E02042F01002EF
:10368800C3F8E020D3F8E02002F010020392039A76
:10369800D3F8E0203243C3F8E020D3F8E0303340D9
:1036A8000493049B03C90590ADF81810DAF850404C
:1036B80034440236204600F085FD034620461C4669
:1036C80000F088FD17F8013B024607A920460B9336
:1036D800CDE90729CDE9095802F096FD0E2EE5D16E
:1036E80000225C20114601F0F9FB5C2001F030FC5F
:1036F8000CB0BDE8F08700BF0050005200440258EB
:1037080030BC0008701F0024124B02689A4200D097
:103718007047114AD2F8D43070B523F4804302259B
:103728000E4EC2F8D430346D2C440235204600F0D9
:1037380049FD034620461C4600F04CFD0146204644
:1037480002F086FE0E2DEED15C20BDE8704001F03F
:103758000DBC00BF0050005200440258701F0024E6
:10376800014804F0EBBB00BF701F0024184BF0B5F4
:10377800197983B0012929D000221146002415485F
:1037880002230125144F4BF6803601920091076001
:103798000662C461114EC460C0E90135C0E9054440
:1037A800C0E90B4406F042FC0D4802234461C461A1
:1037B800C46044630660DDE90012C0E90154C0E951
:1037C8000B4403B0BDE8F04006F030BC0222D5E758
:1037D800CC1F0024D8210024045C0140245C014053
:1037E800C820002470B5254D82B0E978012936D06B
:1037F80000226B7A1146002B35D0012B3AD16B7918
:103808001F48002B0CBF03230223436000244BF600
:103818008036022306628460C461C460C0E905443E
:10382800C0E90B441648CDE9001206F0FFFBEB791E
:1038380014480125A3424FF0020344610CBF03263C
:103848000226C4614660C46044638560DDE90012F5
:10385800C0E90B4402B0BDE8704006F0E7BB6B7AE4
:103868000222002BC9D16B790548B3FA83F35B09AF
:103878004360CBE7024801234360C7E7CC1F00241D
:103888007024002470220024F8B5194F044600F172
:10389800200C3E462068103454F80C1C354654F869
:1038A800082C103654F8043C64450FC5F2D123782F
:1038B800104A3370104C11493B78114D1460012B9C
:1038C800104804F58064104A0D60104904601160C6
:1038D80005D0022B01D033B1F8BDFFF783FFBDE857
:1038E800F840FFF743BFBDE8F840FFF77BBF00BFD4
:1038F800CC1F0024702400240458014070220024A6
:1039080024580140D8210024C8200024245C014008
:10391800B14BD3F8E02042F010022DE9F04FC3F884
:10392800E02093B0D3F8E0200446AC4D02F010023A
:103938000092009AD3F8E02042F00202C3F8E02097
:10394800D3F8E02002F002020192019AD3F8E020B5
:1039580042F04002C3F8E020D3F8E02002F0400231
:103968000292029AD3F8E02042F00802C3F8E0205D
:10397800D3F8E02002F008020392039AD3F8E0207B
:1039880042F00402C3F8E020D3F8E02002F0040279
:103998000492049AD3F8E02042F00102C3F8E02030
:1039A800D3F8E02002F001020592059AD3F8E0204E
:1039B80042F48072C3F8E020D3F8E010026801F402
:1039C8008071AA4206910699D3F8E01041F080016F
:1039D800C3F8E010D3F8E01001F0800107910799CF
:1039E800D3F8E01041F02001C3F8E010D3F8E0105C
:1039F80001F02001089108990CD0794B9A4200F007
:103A08000781784B9A423AD0774B9A4275D013B0D7
:103A1800BDE8F08F754A1168002900F06E81002515
:103A2800DFF8E89101310DF1340809EB450A2F461A
:103A38005FFA85FB1160504615B96D4B597AA9B9E3
:103A480000F0C0FB0646504600F0C4FB02230146C6
:103A5800062230461192CDE90D134146CDE90F7784
:103A680002F0D2FBBBF1040F00F00E81013509EB27
:103A7800450A5FFA85FB5046002DDED0E0E75D4B36
:103A88001A6862B95449D1F8F00040F40000C1F84E
:103A9800F000D1F8F01001F400010B910B99616866
:103AA8000132554D4FF4804021F002011A60534A0B
:103AB8004FF4805301294FF059072A604FF4807161
:103AC8000CBF002240226B614FF480660023AA607D
:103AD8004FF40032A8612846EB606B626F602E617C
:103AE800C5E9071201F0A0FC22683F4BC4F88450D6
:103AF8009A42AC63C4F8805089D13E4B1A68002AB8
:103B080000F0ED8000253E4E01320DF13408A94643
:103B18004FF0020A30465FFA85FB1A60CDB9344B84
:103B28009B7A7BB900F04EFB0746304600F052FB0B
:103B38000A230D901095CDE90EA5384641461193FC
:103B480002F062FB013502365FFA85FB3046002D34
:103B5800E5D000F037FB0746304600F03BFBBBF1F1
:103B6800020F02464FF00A0341463846CDE90D2AB6
:103B7800CDE90F9900F0B180119302F045FBBBF13C
:103B8800040FDFD163685A221E4D4FF4806623F07C
:103B980002031D496A604FF48052012B4FF48040A4
:103BA80029604FF480710CBF00234023A861284688
:103BB800AB600023C5E904624FF40032EB606B622E
:103BC800C5E9071201F030FCC4F88450AC63C4F8AE
:103BD800805013B0BDE8F08F0044025804580140EB
:103BE80024580140045C0140245C0140C41F0024A7
:103BF800CC1F0024C81F0024F823002458000240CA
:103C0800E31F00246021002470000240D91F002413
:103C1800404A136863B94049D1F8F00040F4800085
:103C2800C1F8F000D1F8F01001F480010A910A9966
:103C380061680133394D4FF4804021F0020113606F
:103C4800374A4FF4805301294FF058072A604FF440
:103C580080710CBF002240226B614FF48066002304
:103C6800AA604FF40032A86128466F602E61EB60AD
:103C78006B62C5E9071201F0D7FB2268C4F88450CB
:103C8800AC63C4F88050BCE663685722254D4FF4F6
:103C9800806623F0020324496A604FF48052012BA6
:103CA8004FF4804029604FF480710CBF00234023FB
:103CB800A8612846AB600023C5E904624FF40032CE
:103CC800EB606B62C5E9071201F0AEFB2268C4F82D
:103CD8008450AC63C4F880508FE608232DE70E4962
:103CE800D1F8F00040F40000C1F8F000D1F8F0106D
:103CF80001F400010C910C9904E7D3F8F00040F4AA
:103D08008000C3F8F000D3F8F03003F4800309937F
:103D1800099B84E6C41F0024004402588023002421
:103D280028000240082300241000024038B5134838
:103D38004FF48002124B4FF4003507244FF08041B6
:103D48000360002342604FF0005241638365C0E97D
:103D58000254C0E90433C0E90833C0E90A33C0E9B2
:103D68000E33C0E91033C0E91233C0E91433C0E997
:103D7800062206F07BFC00B1FFBE38BDF01F002410
:103D8800003001406423024892B206F023BD00BF10
:103D9800F01F0024324A0023016810B5914288B010
:103DA800049303930793CDE9053301D008B010BD00
:103DB8002C4B0446D3F8F02042F48052C3F8F0208C
:103DC800D3F8F02002F480520092009AD3F8E02051
:103DD80042F00202C3F8E020D3F8E02002F0020229
:103DE8000192019AD3F8E02042F04002C3F8E020A3
:103DF800D3F8E030826803F04003B2F5003F029345
:103E0800029B29D0B2F5802F23D1102303930220DF
:103E18000023052203A9049013480792CDE905332E
:103E280002F0F2F9A3694FF40062B3F1806F0392D4
:103E380002D04FF44063039300230522022403A910
:103E48000A48CDE90443CDE9063202F0DDF908B0AD
:103E580010BD30230393DAE720230393D7E700BF8D
:103E6800003001400044025800040258001802586B
:103E7800F0B5194BC827194E02224FF0804403F1C0
:103E88000C050021002089B09A60DC6080220024A3
:103E98005A620194C3E900674FF0FF360027C3E96F
:103EA8000401C3E906672846CDE90444CDE9064480
:103EB800CDE9024406F024FE4FF4805304A92846B5
:103EC800049306F0D1FE01A928460194039406F054
:103ED80089FF09B0F0BD00BF78200024400D030021
:103EE800014806F0A5BE00BF84200024034BDA6811
:103EF800516A536A5B1A8342FBD3704778200024C7
:103F0800054A1368D26803FB00F0516A536A5B1ACA
:103F18009842FBD8704700BF782000240368B3F1AB
:103F2800804F00D07047084B82B0D3F8E82042F0A9
:103F38000102C3F8E820D3F8E83003F00103019345
:103F4800019B02B0704700BF004402580000000007
:103F58002DE9F04FCFB04C2200210AA807F0C8FC89
:103F68002022002102A807F0C3FCBC2200211EA8C1
:103F780007F0BEFC022003F0D7FB514A0021514B49
:103F880001911846D16A21F00101D162D26A02F08A
:103F9800010201929A6942F440429A619B6903F4D2
:103FA80040430193019B83699B04FCD5464A022444
:103FB80021204FF48031936A0126042523F003035E
:103FC80023439362C823082210961693002317945C
:103FD800199415951C93CDE90A0105210AA8CDE984
:103FE80013441891CDE91A2304F0B0F800B1FEE7A4
:103FF8003F2603270022082302A82146CDE90267AD
:10400800CDE90423402640234FF480624027CDE9C0
:104018000823CDE9066704F0D5FB034600B1FEE7A7
:1040280080220A260227002534924FF480723394A6
:104038008024439200224FF054084FF008091EA82C
:10404800CDE93B334FF4805335934FF48033469397
:104058000623CDE92267CDE9244540F227164027FB
:1040680004242025CDE926234FF480620023CDE9DE
:104078002867CDE92A45CDE92C230FF23C0BDBE973
:1040880000AB002602270024002500224FF440132D
:10409800CDE91EABCDE92089CDE92E67CDE93045C4
:1040A800CDE93E2304F0B6FD00B1FEE703F062FB64
:1040B8004FB0BDE8F08F00BF09130F0304000000E4
:1040C80000040058004802580044025808B500F09F
:1040D800DFF8BDE8084000F0C1BF00BFFFBE704771
:1040E80070B584B0012500F0A5F80024FFF730FF73
:1040F80000F068FF4FF040512F4A4FF48073684634
:104108000191ADF80050CDE9022300F07DFF40F2A7
:10411800011119224FF040436846ADF80E108DF892
:10412800082001938DF801508DF80D408DF80A4054
:1041380000F06AFF042000F055FF06F045FFFEF787
:104148001FFFBFF34F8FBFF36F8F1C4BC3F8504255
:10415800BFF34F8FBFF36F8F5A6942F400325A6131
:10416800BFF34F8FBFF36F8FC3F88440BFF34F8FF8
:10417800D3F8801043F6E074C1F34E32C1F3C9019D
:10418800520102EA0405084645EA80760138C3F878
:104198006062461CF8D1203A12F1200FF1D1BFF32A
:1041A8004F8F5A6942F480325A61BFF34F8FBFF381
:1041B8006F8F04B070BD00BF0D00010300ED00E07B
:1041C80000F078B8024B027853F82200704700BF1D
:1041D80058BC0008024B427833F81200704700BF01
:1041E80038BC0008704700BF0F4B1B780BB9012083
:1041F800704710B504464FF47A700C4AB0FBF3F3DD
:104208001068B0FBF3F000F0C5FE0F2C00D808B121
:10421800012010BD002221464FF0FF3000F05EFE65
:10422800034B00201C6010BD0C0000240400002477
:104238001000002470B5124C032000F03BFE114E14
:1042480004F020FAA26910490346C2F303220F20A2
:104258000E4D8A5C02F01F02D3403360A26902400F
:104268008A5C02F01F02D3402B60FFF7BDFF10B13C
:104278000124204670BD0446FFF7B4FF204670BDF8
:1042880000440258040000248CBB000808000024E5
:10429800034A044B11681B780B441360704700BF36
:1042A800C42000240C000024014B1868704700BF8C
:1042B800C420002438B50446FFF7F6FF0546631C02
:1042C80002D0044B1B781C44FFF7EEFF431BA342AC
:1042D800FAD338BD0C000024014B1868000C704755
:1042E8000010005C704700BF806B08B5FEF76CFBE0
:1042F80008BD00BF704700BF836B5A6D12F0500FA6
:104308005A6D10B51DD1196842F400725A650A68D1
:1043180012F0080FCA681BD012F4406F0DD1CA689A
:1043280094040AD45A6D22F480725A655A6DD104E5
:1043380003D45A6D42F001025A651846FFF7D2FFBE
:1043480010BDD2060AD4DB6CBDE81040DB6C184700
:104358009007E7D01846FFF7C5FFF1E71846FFF7C3
:10436800C9FF10BD806B08B5436D43F0400343653A
:10437800836D43F004038365FFF7BCFF08BD00BFEE
:10438800F0B5002283B0019290F85020012A00F085
:104398001B81034601201A6883F850009468660759
:1043A80000F189800C68C4F31305002D40F08E805D
:1043B800C4F3846C00FA0CF04C681F26D569A70971
:1043C8003440284302F1300507F00C07A640D061BD
:1043D8000CFA04F4785920EA0600204378519068D2
:1043E800450771D4956815F0080548D10C6802F1A5
:1043F800140607208F684FEAD45CC4F304540CF009
:10440800040C00FA04FE07FA04F4C64F5CF8060030
:1044180020EA0E0020434CF80600386800F070408F
:10442800B0F1805F00F0C880D068D66810F0100F37
:10443800486940F0E980C6F38206760000FA06F67D
:104448000F69042F00F0C38002F16004086854F873
:1044580027C000F0F8400CF0004C40EA0C00304354
:1044680044F827000E694F7E54F82600012F20F0EB
:10447800004008BF4FF00045054344F826509068B7
:10448800C40716D4CE68086806F01807A64CD2F8F8
:10449800C050FC40C0F31307DFF8B8C2044025EA57
:1044A8000705664544EA0504C2F8C04046D000281E
:1044B80016DB002003E05A6D42F020025A65002204
:1044C80083F8502003B0F0BD9068D8E794FAA4F5BB
:1044D800B5FA85F5C4F3846C05F01F04A0406BE7BA
:1044E80092498A4200F0B68001F580718A4200F054
:1044F800B1808F4E8F4DA968B46801F0E076E4432F
:1045080004F00104002C00F0B3808B4CA04200F0B2
:10451800E6808A4CA04200F01F81894CA042C8D195
:104528004902C6D482498A42C3D1AA68002022F02F
:10453800E072324342F48002AA60C0E7002F69D0DB
:1045480090FAA0F4B4FA84F4013404F01F04092C9E
:1045580000F2A38090FAA0F4B4FA84F490FAA0F5DB
:104568000126B5FA85F501343544A40605F01F0582
:1045780004F0F84406FA05F52C4390FAA0F0B0FAD6
:1045880080F0304400F01F0000EB4000000520439D
:10459800C70D02F11405C0F304504FF0070C07F0E3
:1045A80004078E680CFA00FC7C59864024EA0C004B
:1045B8003043785108687AE7D6684869C6F38206B6
:1045C800760000FA06F63BE7022003B0F0BD106E55
:1045D8000D6800F0F840AC06B0EB856F30D0506E37
:1045E80000F0F840844226D0906E00F0F8408442F3
:1045F8002BD0D06E00F0F84084427FF440AFD06EEC
:1046080020F00040D0663AE7760806F0080600FA7F
:1046180006F615E7800E441C04F01F06092E2DD857
:10462800A406012506EB460004F0F84405FA06F650
:1046380000053443ABE7506E20F000405066D3E7E6
:10464800106E20F000401066C9E7906E20F0004020
:104658009066CEE73B49354E3B4C0D468968B768B6
:10466800A46801F0E0763C43E44304F0010449E720
:104678005A6D012042F020025A6520E706EB4600F9
:104688000127A5061E3807FA06F605F0F8450005C5
:10469800354340F0007028437AE790FAA0F5B5FA60
:1046A80085F590FAA0F40126B4FA84F4013534446F
:1046B800AD0604F01F0405F0F84506FA04F4254396
:1046C80090FAA0F4B4FA84F4344404F01F0404EB20
:1046D8004404A4F11E00000540F00070DBE7080266
:1046E8003FF5E7AE12498A427FF4E3AE174AA9685C
:1046F8001268174821F0E07192093143A0FB0202C9
:1047080041F400019209A96052000192019A002A1D
:104718003FF4CFAE019A013A0192019A002AF9D1E9
:10472800C7E600BF0010005CFFFF0F00002002403A
:104738000060025800630258000084CB000052C792
:104748000000B8CF002302400021024004000024EA
:10475800632D3E050000FF4711F080707FF4A9AE7D
:1047680005498A427FF4A5AEAA6822F0E072324376
:1047780042F08072AA60A2E60060025803689A6854
:10478800D20701D5002070479968214A114270B5B7
:1047980004462AD199681F4A0A4042F001029A60E9
:1047A800FFF782FD23681C4A0546934226D002F58E
:1047B8008072934222D0194A9268164E0AE09A688B
:1047C800324042F001029A60FFF76EFD401B02285A
:1047D8000BD823681A68D20717D49A68D107EED580
:1047E800FFF762FD401B0228F3D9636D012043F0F7
:1047F80010036365A36D0343A36570BD084A9268FF
:10480800D006DAD0074A9342D7D1002070BD00BF46
:104818003F000080C0FFFF7F002002400063025875
:1048280000230240002102402DE9F0413B4D04469F
:1048380000680F461646A84219D0394B984216D040
:10484800384DAB688068420716D494F85020012A86
:1048580012D003F01F080123B8F1090F84F8503073
:104868000DD90023012084F85030BDE8F0812E4D89
:10487800AB6880684207E8D50220BDE8F08140F2C5
:10488800212323FA08F3DB4313F00105E9D120467D
:10489800FFF774FF00283AD1626D244B2568134056
:1048A80043F480736365B8F1000F02D01C4B9D423E
:1048B80003D0636D23F480136365636D13F4805331
:1048C80029D0A36D23F00603A365E06C4FF0000C1C
:1048D800DFF868E033463A461C21154F154EC0F8FC
:1048E8003CE00764C664296005F1400184F850C0C3
:1048F8006E6846F010066E6000F060FF22680E4B8E
:1049080091680B4043F004039360BDE8F08184F89C
:104918005050BDE8F081A365D7E700BF00200240F2
:10492800002102400063025800230240FEF0FFFF0E
:10493800F14200086D430008C0FFFF7F01430008F3
:1049480038B503689A68910702D59B68002038BD7E
:104958009A68D20723D59A68044602F00D02012A04
:1049680008D0636D012043F010036365A36D034312
:10497800A36538BD986803210A4A024042F0020242
:104988009A601960FFF790FC054604E0FFF78CFC7D
:10499800401B0228E5D823689B68DB07F6D4002073
:1049A80038BD00BFC0FFFF7F38B55A4A04460368C8
:1049B800934249D002F58072934245D0564B9B688A
:1049C80013F4403F14BF01230023EBB104F014F8A3
:1049D80063680546B3F5003F00F08B80B3F5403FB0
:1049E80073D0B3F5803F00F08480FFF775FC41F287
:1049F800030398421FD8494B9D4260D922689368A7
:104A080043F48073936038BD4FF4002005F07AF8C2
:104A180063680546B3F5101F75D01DD9B3F5201F7F
:104A28005BD0B3F5301FE0D1FFF756FC41F203032A
:104A3800984244D92D0A3A4B9D422ED82268936851
:104A480023F44073936038BD364B9B6813F4403FA2
:104A580014BF01230023B8E7B3F5E01F3FD004D902
:104A6800B3F5001FC1D14509BFE7B3F5801F06D0D4
:104A78000AD9B3F5A01F02D0B3F5C01FB5D19B0C5E
:104A88005B00B5FBF3F5B0E7B3F5002FF7D023F4DF
:104A98000022B2F5802FF2D0A7E7234B234A2B44FC
:104AA80093421ED9224B234A2B449342226893688F
:104AB8002BD823F4407343F40073936038BD226805
:104AC800936823F48073936038BD8508FFF704FC6E
:104AD80041F203039842AED88DE7C50985E7050979
:104AE80083E72268936823F4407343F480739360E8
:104AF80038BD1B0CB5FBF3F5FFF7EEFB41F20303E2
:104B0800984298D877E785096FE743F44073936034
:104B180038BD00BF0020024000630258002D31015B
:104B2800105E5F0000230240EFA1A0FF0F5E5F0050
:104B3800DF4341FF1FBCBE0070B5002382B0019364
:104B4800002800F0CF80456D0446002D00F0B980A4
:104B5800226893689D0003D59168704B0B40936061
:104B68009368D80015D46E4B90681B686D4D9B09EF
:104B78006D49A5FB035301409B0941F080519160A9
:104B88000193019B2BB1019B013B0193019B002BDE
:104B9800F9D19368D90024D4636D012543F010033B
:104BA8006365A36D2B43A365936813F0040F636DCE
:104BB8001DD1DB061BD4636D23F4817343F002031C
:104BC80063659368DE0728D4584B9A4217D003F5DB
:104BD80080739A4213D0564B9B68D9071DD4554A07
:104BE80015E09368002513F0040F636DE1D0636D41
:104BF800012543F010032846636502B070BD4B4A97
:104C08004D4B92689B681343D80706D44B4A936868
:104C1800616823F47C130B439360FFF75DFB41F25B
:104C28000303A1689842237F51D8667D1A04206B3C
:104C380042EA463202430A43012B03D1236A013B6D
:104C480042EA4342636A23B103F47873A16A0B43CF
:104C58001A4323683A49D86801400A43DA609A68D7
:104C680012F0040F9A681CD112071AD4D968354A71
:104C7800207D0A40E16A42EA80320A43DA6094F809
:104C88003820012A3AD01A6922F001021A611A69F9
:104C98002046616B22F070420A431A61FFF784FED6
:104CA8002368E268012A21D01A6B22F00F021A63E6
:104CB800636D284623F0030343F00103636502B0E4
:104CC80070BDFDF735FEA56584F8505040E7102902
:104CD800ABD1607D1A04216B42EA40320A4342F0AC
:104CE8001C02A9E70125284602B070BD196BA2690C
:104CF80021F00F01013A0A431A63D9E71869124EE5
:104D0800D4E910210640A06C0A43E16B3243024308
:104D180042EA014242F001021A61B8E7C0FFFF5FB0
:104D280004000024632D3E05C0FFFF6F00200240F1
:104D3800006002580063025800210240002302402C
:104D480003C0F0FFFCBFFFFF1EF800FCF0B50D46E6
:104D580090F8501083B00026012901963ED0012317
:104D68000446174680F85030FFF7EAFD636DE0B956
:104D78001C4E07F08042216805F480351E401A4B0E
:104D88001A4F46F0020666658E68334013432B437C
:104D980043F000438B608B68002B0EDB636D23F0C0
:104DA800030343F00103636502E043F01003636506
:104DB800002384F8503003B0F0BD019B0133019308
:104DC800019BBB42E7D9636D0022012023F0120347
:104DD80084F8502043F010036365ECE7022003B029
:104DE800F0BD00BFFDEEFFFFC0FFFE3FFF955A5527
:104DF800F0B490F850200E68012A49D00346294A99
:104E080001201C6883F85000944208D05A6D002194
:104E180042F0200283F850105A65F0BC7047224DCA
:104E2800AA6852070AD5A2685A6D012042F02002EA
:104E38005A65002283F85020F0BC7047A06810F033
:104E48000400F1D1C6B1DFF868C04F68DCF808206B
:104E580022F440423A43CCF80820A468AA682243C6
:104E6800D40713D48A68DCF8084010491643214057
:104E78000E43CCF80860DCE70D498A6822F440420A
:104E88008A60A068AA680243D00704D50020D0E74A
:104E98000220F0BC70478C683046044A22408A6081
:104EA800C7E700BF0020024000210240E0F0FFFFFA
:104EB8000023024007490002074BCA6800F4E0607B
:104EC80010B44FF6FF0422405DF8044B104303432F
:104ED800CB60704700ED00E00000FA05194BDB6875
:104EE800C3F3022330B4C3F107051C1D042D28BFEA
:104EF8000425062C19D9033B4FF0FF349C4022EAC5
:104F080004024FF0FF34002804FA05F421EA0401F2
:104F180001FA03F141EA02010ADB09010A4BC9B2AD
:104F2800034483F8001330BC704700221346E8E7B7
:104F380000F00F000901054BC9B20344197630BCD3
:104F4800704700BF00ED00E000E100E0FCEC00E08D
:104F5800002807DB00F01F0101234009024A8B40AB
:104F680042F82030704700BF00E100E000280DDB68
:104F78004309012200F01F000549203302FA00F01E
:104F880041F82300BFF34F8FBFF36F8F704700BF07
:104F980000E100E00138B0F1807F0DD2074B00221C
:104FA800072130B4F025064C5860104684F8235089
:104FB8009A60196030BC70470120704710E000E02B
:104FC80000ED00E0BFF35F8F044A00200449536AF4
:104FD80023F4803353624860704700BF00ED00E05F
:104FE80090ED00E0064A40F00100064B5860536A15
:104FF80043F480335362BFF34F8FBFF36F8F704713
:1050080000ED00E090ED00E0124A437893600178EB
:10501800E9B1436870B4D360C37A047B1B06857A10
:10502800867B43EA0473447B0B43017A43EAC54316
:10503800C57B43EA8443447A43EA464343EA05434B
:1050480043EA042343EA410370BC13617047D1600B
:105058001161704790ED00E0704700BF08B5FFF799
:10506800FBFF08BD88B110B50379044603F0FF02C1
:105078003BB10023022101222171184623612271CC
:1050880010BD4271FDF772FDF3E70120704700BFC4
:105098004279012A26D003460122006830B401F083
:1050A80010040225A2401D710468224302600268B0
:1050B80071B902F03E02AA4203D1426842F00102ED
:1050C800426000220121104619715A7130BC7047A4
:1050D80002F47812B2F5003FF3D1426842F00202BE
:1050E8004260EEE70220704710B4006883B00024E5
:1050F8000194019051B9019908310A440192019A29
:105108000020136003B05DF8044B70470199143117
:105118000A440192F3E700BF4379D1F800C0012B9C
:1051280000F096800223BCF1040F2DE9F0411646E9
:105138004FF0010204460D46427103713ED006F05D
:1051480010020368296901292ED0EE680727A9688B
:1051580007FA02F0DF6B31436D6827EA000740F673
:10516800FE7641EA0C014FF480409540964091400C
:1051780090404FF0000C3943C027D96307FA02F179
:105188001A68012722EA000260461A601A6822EAB1
:1051980006022A431A601A6822EA01021A60277175
:1051A80084F805C0BDE8F0811F26986B69699640B0
:1051B800914020EA060001439963C6E7D6B9FFF794
:1051C80073F8DFF89080074604E0FFF76DF8C01B1E
:1051D800012834D823685B6B13EA080FF5D1012046
:1051E800FFF768F82368AA691A640DE0FFF75CF80E
:1051F800012824D823685B6B002BF7DB0120FFF71D
:1052080059F82368AA695A6406F0100240F2FF3C74
:10521800986CFF21EF690CFA02FC01FA02F6296A80
:1052280020EA0C009740D5F800C03843986401FA8A
:1052380002F0D96C21EA06010143D96482E72369A7
:10524800032243F00803104623612271BDE8F08170
:1052580002207047008000200268354B354930B481
:10526800354C364DA24218BF9A4204F148040CBF8F
:10527800012300238A4208BF43F001034831AA42B0
:1052880008BF43F001034835A24208BF43F00103B9
:1052980048348A4208BF43F0010301F56271AA420B
:1052A80008BF43F0010305F56275A24208BF43F049
:1052B800010304F562748A4208BF43F001034831D0
:1052C800AA4208BF43F001034835A24208BF43F091
:1052D800010348348A4208BF43F001034831AA4217
:1052E80008BF43F00103A24208BF43F001038A420A
:1052F80008BF43F0010313B9114B9A4213D1D3B23B
:105308001049114C103BA1FB03515F2B0F4BC1F30C
:10531800021103EA0203615C88BF0433C165836537
:10532800184630BC704722F0FF038365F8E700BFDA
:10533800100002404000024028000240580002408D
:10534800B8040240ABAAAAAA88BC000800FCFFFF68
:105358000368294A294930B4294D2A4CAB4218BF61
:10536800934205F13C050CBF01220022A34208BF6D
:1053780042F001023C348B4208BF42F001023C314A
:10538800AB4208BF42F00102A34208BF42F001024B
:105398008B4208BF42F0010212B91B4A934213D153
:1053A800DBB21A4D1A4A0121083B1A4CA5FB0353DC
:1053B800446602EB1312C3F30413920001FA03F3D9
:1053C8000266836630BC7047DAB21349134C19443D
:1053D800103AA829A4FB02234FEA131300D8083374
:1053E8000F4A03F01F0501210E4C1A44A9404466D8
:1053F800920081660266E5E7085402584454025850
:105408001C5402583054025894540258CDCCCCCC79
:105418000096001680580258F0FBFDBFABAAAAAA56
:105428000082001080080240F8B50446FEF73CFFF1
:10543800002C00F0DC8023680546974A934249D047
:105448001832934246D0303294489549834218BF67
:10545800934200F148000CBF012200228B4208BF92
:1054680042F001023031834208BF42F0010230307D
:105478008B4208BF42F0010201F55C71834208BF0C
:1054880042F0010200F55C708B4208BF42F0010255
:105498003031834208BF42F0010230308B4208BFEE
:1054A80042F001023031834208BF42F0010230303D
:1054B8008B4208BF42F001023031834208BF42F0FC
:1054C80001028B4208BF42F001021AB9754A9342A1
:1054D80040F0FC800222002184F8352084F8341042
:1054E8001A6822F001021A6005E0FEF7DDFE431B90
:1054F800052B57D823681A68D107F6D4D4E90221B6
:1055080020690A431F68D4E9051602430A4366491D
:10551800D4E90705324339400243606A2A43042824
:1055280041EA020145D019605A6922F00702104386
:1055380058612046FFF790FEE26D3F2302F01F02FC
:10554800934083602046FFF703FFA368802B18D0A1
:105558006368256EDAB2013BD4E91910072B2A607B
:10556800486015D8501E072843D9626FD4E91B310B
:1055780000201860002001234A60606584F83530F7
:10558800F8BD0023A16ED4E918026360036051607E
:1055980000230020C4E91B3363670123606584F896
:1055A8003530F8BD202203230120626584F83530A8
:1055B800F8BDD4E90B50A26A284301431960586921
:1055C80020F00700104340F00400002DB0D0002E5A
:1055D80045D1012A5AD032F00202A9D1EA01A7D551
:1055E800012340221846626584F83530F8BD012051
:1055F800F8BD21682D4B2E4E2E4DB14218BF994251
:1056080006F128060CBF01230023A94208BF43F076
:1056180001032835B14208BF43F001032836A942E7
:1056280008BF43F001032835B14208BF43F0010326
:10563800A94208BF43F001033BB91F4B994204D06C
:105648001E4B1F4913449B0003E01E4B1E49134485
:105658009B0001228240C4E91B31626788E7B6F5E6
:10566800005F04D0022ABBD9032AB7D060E7032A17
:105678003FF65EAF01A151F822F000BFE9550008DE
:10568800E5550008E955000895560008B5F1C07FB2
:105698007FF44EAFA4E700BF100002404000024074
:1056A80070000240B80402403F8010FE08540258BF
:1056B8001C54025830540258945402583F82001027
:1056C800400902403F96001640590258334A34496F
:1056D80034488B4218BF934201F12801324D0CBF68
:1056E80001220022834208BF42F001023C308B4273
:1056F80008BF42F001023C31AB4208BF42F0010250
:10570800834208BF42F001028B4208BF42F0010207
:1057180012B9264A93423AD102220021244F84F832
:105728003520A26884F83410402A196807EA01076E
:105738002BD0802A0CBF4FF48041002122692046DB
:10574800E668D2086569DFF870C042EAD602A66941
:1057580042EAD502E56942EAD602164E42EAD50285
:105768001E44256A42EA1512ACFB06653A432D0928
:105778001143AD001960E565FFF76EFDE26D012389
:1057880002F01F0293404360DCE61021D6E7402276
:1057980003230120626584F83530F8BD08540258A7
:1057A8001C54025830540258585402589454025801
:1057B8000F00FEFFF8ABFDA7CDCCCCCC002800F045
:1057C800C1802DE9F041054690F83400012800F029
:1057D800BB80012095F83540844285F8340007D015
:1057E80000224FF4006385F834206B65BDE8F08132
:1057F8002E6802277D4C7E48DFF808C2864218BF13
:10580800A64200F1300085F835704FF000070CBF54
:10581800012400246F65664508BF44F001040CF1BB
:10582800300C744F864208BF44F00104303066459E
:1058380008BF44F001040CF5627C864208BF44F0BE
:10584800010400F56270BE4208BF44F00104483705
:10585800664508BF44F001040CF1480C864208BFB5
:1058680044F001044830BE4208BF44F00104483700
:10587800664508BF44F001040CF1480C864208BF95
:1058880044F00104A0F58F60BE4208BF44F0010453
:10589800A7F58F67664508BF44F00104BE4218BFEC
:1058A80086426F6E0CBF0120002004433068D5E9A2
:1058B8001A8C20F001003060D5F858E0C7F8048051
:1058C80045D0BCF1000F02D0D5E91C074760EF6D49
:1058D8003F20D5F8088007F01F07B8F1400F00FAFD
:1058E80007F0CEF80800306820F48020306073603C
:1058F80025D0B160F26033682A6C23F01E0343F0B0
:10590800160333601AB1336843F0080333602B6E13
:105918001A68D20303D51A6842F480721A60BCF17F
:10592800000F05D0DCF8003043F48073CCF8003069
:105938003368002043F001033360BDE8F081B260B2
:10594800F160D8E7012070470220BDE8F081BCF182
:10595800000F02D0D5E91C0747602748DFF8A88068
:10596800264F464518BF864208F128080CBF01207B
:105978000020BE4208BF40F001002837464508BF56
:1059880040F0010008F12808BE4208BF40F00100BD
:105998002837464508BF40F00100BE4208BF40F026
:1059A800010010B9164886420FD1E86D0127D5F8D5
:1059B800088000F01F00B8F1400F07FA00F0CEF899
:1059C800040073600FD0B160F26033682A6C23F072
:1059D8000E0343F00A033360002A98D0336843F07B
:1059E8000403336093E7B260F160EEE740000240E1
:1059F800580002401004024008540258305402581B
:105A080094540258700002401C540258002860D078
:105A1800F8B590F835200346022A56D10168454A60
:105A2800914249D01832914246D030324248434CD4
:105A3800814218BF914200F14800414D0CBF01223C
:105A48000022A14208BF42F001024834814208BF47
:105A580042F0010200F56270A94208BF42F001025B
:105A680005F56275A14208BF42F0010204F56274AF
:105A7800814208BF42F001024830A94208BF42F003
:105A880001024835A14208BF42F001024834814270
:105A980008BF42F001024830A94208BF42F00102A3
:105AA800A14208BF42F00102814208BF42F0010250
:105AB80012B9244A91420ED10422002083F83520DD
:105AC8000B6823F001030B60F8BD802201205A65A2
